:02000000FE2FD1
:100F220083160313860108009127213083120313CD
:100F320086000330F2008A30F1005530F000F00BE9
:100F4200A02FF10BA02FF20BA02FA72F813083121D
:100F5200031386000830F2009D30F1000530F000E6
:100F6200F00BB12FF10BB12FF20BB12FB82F413093
:100F72008312031386000330F2008A30F1005530E9
:100F8200F000F00BC22FF10BC22FF20BC22FC92FB0
:100F920021308312031386000330F2008A30F100FD
:100FA2005530F000F00BD32FF10BD32FF20BD32FD0
:100FB200DA2F24308312031386000D30F200AF3093
:100FC200F100B630F000F00BE42FF10BE42FF20B3E
:100FD200E42F000022308312031386000330F20054
:100FE2008A30F1005530F000F00BF52FF10BF52FA0
:0E0FF200F20BF52FFC2F962F00288301952F70
:02400E002A3F47
:00000001FF
