:02000000D62FF9
:100D6C008316031386010800EE3400342834003453
:100D7C00CD3400346D3400342B34003467340034FB
:100D8C00E73400342C340034EF3400342F34003486
:100D9C00F401F501701CD32ED42EDA2E7208F40750
:100DAC000318F50A7308F50701300310F20DF30D63
:100DBC00FF3E031DDB2E01300310F10CF00CFF3E47
:100DCC00031DE22E70087104031DED2EEE2ED02EA5
:100DDC007508F1007408F0000800F501F11FF72EFA
:100DEC00F82EFF2EF009F109F00A0319F10A01306F
:100DFC00F500F31F022F032F0A2FF209F309F20A51
:100E0C000319F30A0130F506F601F70170087104B5
:100E1C000319112F122F472F0130F4001E2F013010
:100E2C000310F00DF10DFF3E031D162F0130F407DA
:100E3C00F11F212F222F152F01300310F60DF70D66
:100E4C00FF3E031D232F71087302031D2F2F700803
:100E5C007202031C322F332F3A2F7008F2027108E2
:100E6C00031CF303F302761401300310F10CF00CA5
:100E7C00FF3E031D3B2F0130F402031D462F472F6D
:100E8C00222F750803194B2F4C2F512FF609F709F8
:100E9C00F60A0319F70A7708F1007608F000080043
:100EAC0083120313BA01BB01B801B901B401B50136
:100EBC00B601B701B626831203133808F800780779
:100ECC00203E84008313000886004130F900EE3088
:100EDC00F800F80B6F2FF90B6F2F00008312031320
:100EEC003408F8007807203E84008313000810387B
:100EFC0086004130F900EE30F800F80B832FF90B27
:100F0C00832F0000013083120313B6070318B70AAE
:100F1C000030B707053036063704031D962F972F80
:100F2C00612FB601B7010130BA070318BB0A0030B4
:100F3C00BB073B08803AFF0080307F02031DA82FBF
:100F4C0064303A02031CAB2FAC2FB02F8312031367
:100F5C00BA01BB010A30F0000030F1008312031318
:100F6C003B08F3003A08F200F326710883120313CE
:100F7C00B9007008B8003908F1003808F000F630F4
:100F8C00F200FF30F300CE26831203133A087007E9
:100F9C00B4003B0803183B0A7107B500612F002809
:100FAC00BA26A000BB26A100BC26A200BD26A30029
:100FBC00BE26A400BF26A500C026A600C126A700F9
:100FCC00C226A800C326A900C426AA00C526AB00C9
:100FDC00C626AC00C726AD00C826AE00C926AF0099
:100FEC00CA26B000CB26B100CC26B200CD26B30069
:040FFC008301562FE8
:02400E002A3F47
:00000001FF
