:02000000D62FF9
:100EC4008316031386010800EE34003428340034FA
:100ED400CD3400346D3400342B34003467340034A2
:100EE400E73400342C340034EF3400342F3400342D
:100EF4006227F301F4017308F0007007203E8400B8
:100F0400831300088312031386000230F2000430B6
:100F1400F100BA30F000F00B8D2FF10B8D2FF20B96
:100F24008D2F00000130F3070318F40A0030F40792
:100F34007408803AFF0080307F02031DA32F0A301B
:100F44007302031CA62FA72F7D2FF501F601750848
:100F5400F0007007203E84008313000810388312C9
:100F6400031386000230F2000430F100BA30F000BE
:100F7400F00BBA2FF10BBA2FF20BBA2F000001308D
:100F8400F5070318F60A0030F6077608803AFF00E2
:100F940080307F02031DD02F0A307502031CD32F2B
:100FA400D42FA92F7B2F00286627A0006727A10034
:100FB4006827A2006927A3006A27A4006B27A5005D
:100FC4006C27A6006D27A7006E27A8006F27A9002D
:100FD4007027AA007127AB007227AC007327AD00FD
:100FE4007427AE007527AF007627B0007727B100CD
:0C0FF4007827B2007927B30083017A2F20
:02400E002A3F47
:00000001FF
